{
  "_format": "hh-sol-artifact-1",
  "contractName": "Property",
  "sourceName": "contracts/Property.sol",
  "abi": [
    {
      "inputs": [],
      "stateMutability": "nonpayable",
      "type": "constructor"
    },
    {
      "inputs": [
        {
          "internalType": "address",
          "name": "sender",
          "type": "address"
        },
        {
          "internalType": "uint256",
          "name": "tokenId",
          "type": "uint256"
        },
        {
          "internalType": "address",
          "name": "owner",
          "type": "address"
        }
      ],
      "name": "ERC721IncorrectOwner",
      "type": "error"
    },
    {
      "inputs": [
        {
          "internalType": "address",
          "name": "operator",
          "type": "address"
        },
        {
          "internalType": "uint256",
          "name": "tokenId",
          "type": "uint256"
        }
      ],
      "name": "ERC721InsufficientApproval",
      "type": "error"
    },
    {
      "inputs": [
        {
          "internalType": "address",
          "name": "approver",
          "type": "address"
        }
      ],
      "name": "ERC721InvalidApprover",
      "type": "error"
    },
    {
      "inputs": [
        {
          "internalType": "address",
          "name": "operator",
          "type": "address"
        }
      ],
      "name": "ERC721InvalidOperator",
      "type": "error"
    },
    {
      "inputs": [
        {
          "internalType": "address",
          "name": "owner",
          "type": "address"
        }
      ],
      "name": "ERC721InvalidOwner",
      "type": "error"
    },
    {
      "inputs": [
        {
          "internalType": "address",
          "name": "receiver",
          "type": "address"
        }
      ],
      "name": "ERC721InvalidReceiver",
      "type": "error"
    },
    {
      "inputs": [
        {
          "internalType": "address",
          "name": "sender",
          "type": "address"
        }
      ],
      "name": "ERC721InvalidSender",
      "type": "error"
    },
    {
      "inputs": [
        {
          "internalType": "uint256",
          "name": "tokenId",
          "type": "uint256"
        }
      ],
      "name": "ERC721NonexistentToken",
      "type": "error"
    },
    {
      "anonymous": false,
      "inputs": [
        {
          "indexed": true,
          "internalType": "address",
          "name": "owner",
          "type": "address"
        },
        {
          "indexed": true,
          "internalType": "address",
          "name": "approved",
          "type": "address"
        },
        {
          "indexed": true,
          "internalType": "uint256",
          "name": "tokenId",
          "type": "uint256"
        }
      ],
      "name": "Approval",
      "type": "event"
    },
    {
      "anonymous": false,
      "inputs": [
        {
          "indexed": true,
          "internalType": "address",
          "name": "owner",
          "type": "address"
        },
        {
          "indexed": true,
          "internalType": "address",
          "name": "operator",
          "type": "address"
        },
        {
          "indexed": false,
          "internalType": "bool",
          "name": "approved",
          "type": "bool"
        }
      ],
      "name": "ApprovalForAll",
      "type": "event"
    },
    {
      "anonymous": false,
      "inputs": [
        {
          "indexed": false,
          "internalType": "uint256",
          "name": "_fromTokenId",
          "type": "uint256"
        },
        {
          "indexed": false,
          "internalType": "uint256",
          "name": "_toTokenId",
          "type": "uint256"
        }
      ],
      "name": "BatchMetadataUpdate",
      "type": "event"
    },
    {
      "anonymous": false,
      "inputs": [
        {
          "indexed": false,
          "internalType": "uint256",
          "name": "_tokenId",
          "type": "uint256"
        }
      ],
      "name": "MetadataUpdate",
      "type": "event"
    },
    {
      "anonymous": false,
      "inputs": [
        {
          "indexed": true,
          "internalType": "address",
          "name": "from",
          "type": "address"
        },
        {
          "indexed": true,
          "internalType": "address",
          "name": "to",
          "type": "address"
        },
        {
          "indexed": true,
          "internalType": "uint256",
          "name": "tokenId",
          "type": "uint256"
        }
      ],
      "name": "Transfer",
      "type": "event"
    },
    {
      "inputs": [
        {
          "internalType": "address",
          "name": "to",
          "type": "address"
        },
        {
          "internalType": "uint256",
          "name": "tokenId",
          "type": "uint256"
        }
      ],
      "name": "approve",
      "outputs": [],
      "stateMutability": "nonpayable",
      "type": "function"
    },
    {
      "inputs": [
        {
          "internalType": "address",
          "name": "owner",
          "type": "address"
        }
      ],
      "name": "balanceOf",
      "outputs": [
        {
          "internalType": "uint256",
          "name": "",
          "type": "uint256"
        }
      ],
      "stateMutability": "view",
      "type": "function"
    },
    {
      "inputs": [
        {
          "internalType": "uint256",
          "name": "tokenId",
          "type": "uint256"
        }
      ],
      "name": "getApproved",
      "outputs": [
        {
          "internalType": "address",
          "name": "",
          "type": "address"
        }
      ],
      "stateMutability": "view",
      "type": "function"
    },
    {
      "inputs": [
        {
          "internalType": "uint256",
          "name": "tokenId",
          "type": "uint256"
        }
      ],
      "name": "getTokenURI",
      "outputs": [
        {
          "internalType": "string",
          "name": "",
          "type": "string"
        }
      ],
      "stateMutability": "view",
      "type": "function"
    },
    {
      "inputs": [
        {
          "internalType": "address",
          "name": "owner",
          "type": "address"
        },
        {
          "internalType": "address",
          "name": "operator",
          "type": "address"
        }
      ],
      "name": "isApprovedForAll",
      "outputs": [
        {
          "internalType": "bool",
          "name": "",
          "type": "bool"
        }
      ],
      "stateMutability": "view",
      "type": "function"
    },
    {
      "inputs": [
        {
          "internalType": "string",
          "name": "tokenURI",
          "type": "string"
        }
      ],
      "name": "mint",
      "outputs": [
        {
          "internalType": "uint256",
          "name": "",
          "type": "uint256"
        }
      ],
      "stateMutability": "nonpayable",
      "type": "function"
    },
    {
      "inputs": [],
      "name": "name",
      "outputs": [
        {
          "internalType": "string",
          "name": "",
          "type": "string"
        }
      ],
      "stateMutability": "view",
      "type": "function"
    },
    {
      "inputs": [
        {
          "internalType": "uint256",
          "name": "tokenId",
          "type": "uint256"
        }
      ],
      "name": "ownerOf",
      "outputs": [
        {
          "internalType": "address",
          "name": "",
          "type": "address"
        }
      ],
      "stateMutability": "view",
      "type": "function"
    },
    {
      "inputs": [
        {
          "internalType": "address",
          "name": "from",
          "type": "address"
        },
        {
          "internalType": "address",
          "name": "to",
          "type": "address"
        },
        {
          "internalType": "uint256",
          "name": "tokenId",
          "type": "uint256"
        }
      ],
      "name": "safeTransferFrom",
      "outputs": [],
      "stateMutability": "nonpayable",
      "type": "function"
    },
    {
      "inputs": [
        {
          "internalType": "address",
          "name": "from",
          "type": "address"
        },
        {
          "internalType": "address",
          "name": "to",
          "type": "address"
        },
        {
          "internalType": "uint256",
          "name": "tokenId",
          "type": "uint256"
        },
        {
          "internalType": "bytes",
          "name": "data",
          "type": "bytes"
        }
      ],
      "name": "safeTransferFrom",
      "outputs": [],
      "stateMutability": "nonpayable",
      "type": "function"
    },
    {
      "inputs": [
        {
          "internalType": "address",
          "name": "operator",
          "type": "address"
        },
        {
          "internalType": "bool",
          "name": "approved",
          "type": "bool"
        }
      ],
      "name": "setApprovalForAll",
      "outputs": [],
      "stateMutability": "nonpayable",
      "type": "function"
    },
    {
      "inputs": [
        {
          "internalType": "bytes4",
          "name": "interfaceId",
          "type": "bytes4"
        }
      ],
      "name": "supportsInterface",
      "outputs": [
        {
          "internalType": "bool",
          "name": "",
          "type": "bool"
        }
      ],
      "stateMutability": "view",
      "type": "function"
    },
    {
      "inputs": [],
      "name": "symbol",
      "outputs": [
        {
          "internalType": "string",
          "name": "",
          "type": "string"
        }
      ],
      "stateMutability": "view",
      "type": "function"
    },
    {
      "inputs": [
        {
          "internalType": "uint256",
          "name": "tokenId",
          "type": "uint256"
        }
      ],
      "name": "tokenURI",
      "outputs": [
        {
          "internalType": "string",
          "name": "",
          "type": "string"
        }
      ],
      "stateMutability": "view",
      "type": "function"
    },
    {
      "inputs": [],
      "name": "totalSupply",
      "outputs": [
        {
          "internalType": "uint256",
          "name": "",
          "type": "uint256"
        }
      ],
      "stateMutability": "view",
      "type": "function"
    },
    {
      "inputs": [
        {
          "internalType": "address",
          "name": "from",
          "type": "address"
        },
        {
          "internalType": "address",
          "name": "to",
          "type": "address"
        },
        {
          "internalType": "uint256",
          "name": "tokenId",
          "type": "uint256"
        }
      ],
      "name": "transferFrom",
      "outputs": [],
      "stateMutability": "nonpayable",
      "type": "function"
    }
  ],
  "bytecode": "0x608060405260006007553480156200001657600080fd5b506040518060400160405280600881526020017f50726f70657274790000000000000000000000000000000000000000000000008152506040518060400160405280600381526020017f4848560000000000000000000000000000000000000000000000000000000000815250816000908162000094919062000329565b508060019081620000a6919062000329565b50505062000410565b600081519050919050565b7f4e487b7100000000000000000000000000000000000000000000000000000000600052604160045260246000fd5b7f4e487b7100000000000000000000000000000000000000000000000000000000600052602260045260246000fd5b600060028204905060018216806200013157607f821691505b602082108103620001475762000146620000e9565b5b50919050565b60008190508160005260206000209050919050565b60006020601f8301049050919050565b600082821b905092915050565b600060088302620001b17fffffffffffffffffffffffffffffffffffffffffffffffffffffffffffffffff8262000172565b620001bd868362000172565b95508019841693508086168417925050509392505050565b6000819050919050565b6000819050919050565b60006200020a62000204620001fe84620001d5565b620001df565b620001d5565b9050919050565b6000819050919050565b6200022683620001e9565b6200023e620002358262000211565b8484546200017f565b825550505050565b600090565b6200025562000246565b620002628184846200021b565b505050565b5b818110156200028a576200027e6000826200024b565b60018101905062000268565b5050565b601f821115620002d957620002a3816200014d565b620002ae8462000162565b81016020851015620002be578190505b620002d6620002cd8562000162565b83018262000267565b50505b505050565b600082821c905092915050565b6000620002fe60001984600802620002de565b1980831691505092915050565b6000620003198383620002eb565b9150826002028217905092915050565b6200033482620000af565b67ffffffffffffffff81111562000350576200034f620000ba565b5b6200035c825462000118565b620003698282856200028e565b600060209050601f831160018114620003a157600084156200038c578287015190505b6200039885826200030b565b86555062000408565b601f198416620003b1866200014d565b60005b82811015620003db57848901518255600182019150602085019450602081019050620003b4565b86831015620003fb5784890151620003f7601f891682620002eb565b8355505b6001600288020188555050505b505050505050565b6125ac80620004206000396000f3fe608060405234801561001057600080fd5b50600436106101005760003560e01c80636352211e11610097578063b88d4fde11610066578063b88d4fde146102bf578063c87b56dd146102db578063d85d3d271461030b578063e985e9c51461033b57610100565b80636352211e1461022557806370a082311461025557806395d89b4114610285578063a22cb465146102a357610100565b806318160ddd116100d357806318160ddd1461019f57806323b872dd146101bd5780633bb3a24d146101d957806342842e0e1461020957610100565b806301ffc9a71461010557806306fdde0314610135578063081812fc14610153578063095ea7b314610183575b600080fd5b61011f600480360381019061011a91906119c5565b61036b565b60405161012c9190611a0d565b60405180910390f35b61013d6103cc565b60405161014a9190611ab8565b60405180910390f35b61016d60048036038101906101689190611b10565b61045e565b60405161017a9190611b7e565b60405180910390f35b61019d60048036038101906101989190611bc5565b61047a565b005b6101a7610490565b6040516101b49190611c14565b60405180910390f35b6101d760048036038101906101d29190611c2f565b61049a565b005b6101f360048036038101906101ee9190611b10565b61059c565b6040516102009190611ab8565b60405180910390f35b610223600480360381019061021e9190611c2f565b6105ae565b005b61023f600480360381019061023a9190611b10565b6105ce565b60405161024c9190611b7e565b60405180910390f35b61026f600480360381019061026a9190611c82565b6105e0565b60405161027c9190611c14565b60405180910390f35b61028d61069a565b60405161029a9190611ab8565b60405180910390f35b6102bd60048036038101906102b89190611cdb565b61072c565b005b6102d960048036038101906102d49190611e50565b610742565b005b6102f560048036038101906102f09190611b10565b61075f565b6040516103029190611ab8565b60405180910390f35b61032560048036038101906103209190611f74565b610872565b6040516103329190611c14565b60405180910390f35b61035560048036038101906103509190611fbd565b6108f1565b6040516103629190611a0d565b60405180910390f35b6000634906490660e01b7bffffffffffffffffffffffffffffffffffffffffffffffffffffffff1916827bffffffffffffffffffffffffffffffffffffffffffffffffffffffff191614806103c557506103c482610985565b5b9050919050565b6060600080546103db9061202c565b80601f01602080910402602001604051908101604052809291908181526020018280546104079061202c565b80156104545780601f1061042957610100808354040283529160200191610454565b820191906000526020600020905b81548152906001019060200180831161043757829003601f168201915b5050505050905090565b600061046982610a67565b5061047382610aef565b9050919050565b61048c8282610487610b2c565b610b34565b5050565b6000600754905090565b600073ffffffffffffffffffffffffffffffffffffffff168273ffffffffffffffffffffffffffffffffffffffff160361050c5760006040517f64a0ae920000000000000000000000000000000000000000000000000000000081526004016105039190611b7e565b60405180910390fd5b6000610520838361051b610b2c565b610b46565b90508373ffffffffffffffffffffffffffffffffffffffff168173ffffffffffffffffffffffffffffffffffffffff1614610596578382826040517f64283d7b00000000000000000000000000000000000000000000000000000000815260040161058d9392919061205d565b60405180910390fd5b50505050565b60606105a78261075f565b9050919050565b6105c983838360405180602001604052806000815250610742565b505050565b60006105d982610a67565b9050919050565b60008073ffffffffffffffffffffffffffffffffffffffff168273ffffffffffffffffffffffffffffffffffffffff16036106535760006040517f89c62b6400000000000000000000000000000000000000000000000000000000815260040161064a9190611b7e565b60405180910390fd5b600360008373ffffffffffffffffffffffffffffffffffffffff1673ffffffffffffffffffffffffffffffffffffffff168152602001908152602001600020549050919050565b6060600180546106a99061202c565b80601f01602080910402602001604051908101604052809291908181526020018280546106d59061202c565b80156107225780601f106106f757610100808354040283529160200191610722565b820191906000526020600020905b81548152906001019060200180831161070557829003601f168201915b5050505050905090565b61073e610737610b2c565b8383610d60565b5050565b61074d84848461049a565b61075984848484610ecf565b50505050565b606061076a82610a67565b50600060066000848152602001908152602001600020805461078b9061202c565b80601f01602080910402602001604051908101604052809291908181526020018280546107b79061202c565b80156108045780601f106107d957610100808354040283529160200191610804565b820191906000526020600020905b8154815290600101906020018083116107e757829003601f168201915b505050505090506000610815611086565b9050600081510361082a57819250505061086d565b60008251111561085f5780826040516020016108479291906120d0565b6040516020818303038152906040529250505061086d565b6108688461109d565b925050505b919050565b60006001600760008282546108879190612123565b925050819055506000600754905061089f3382611106565b6108de6040518060400160405280600f81526020017f746f6b656e555249206973206e6f770000000000000000000000000000000000815250846111ff565b6108e8818461129b565b80915050919050565b6000600560008473ffffffffffffffffffffffffffffffffffffffff1673ffffffffffffffffffffffffffffffffffffffff16815260200190815260200160002060008373ffffffffffffffffffffffffffffffffffffffff1673ffffffffffffffffffffffffffffffffffffffff16815260200190815260200160002060009054906101000a900460ff16905092915050565b60007f80ac58cd000000000000000000000000000000000000000000000000000000007bffffffffffffffffffffffffffffffffffffffffffffffffffffffff1916827bffffffffffffffffffffffffffffffffffffffffffffffffffffffff19161480610a5057507f5b5e139f000000000000000000000000000000000000000000000000000000007bffffffffffffffffffffffffffffffffffffffffffffffffffffffff1916827bffffffffffffffffffffffffffffffffffffffffffffffffffffffff1916145b80610a605750610a5f826112f7565b5b9050919050565b600080610a7383611361565b9050600073ffffffffffffffffffffffffffffffffffffffff168173ffffffffffffffffffffffffffffffffffffffff1603610ae657826040517f7e273289000000000000000000000000000000000000000000000000000000008152600401610add9190611c14565b60405180910390fd5b80915050919050565b60006004600083815260200190815260200160002060009054906101000a900473ffffffffffffffffffffffffffffffffffffffff169050919050565b600033905090565b610b41838383600161139e565b505050565b600080610b5284611361565b9050600073ffffffffffffffffffffffffffffffffffffffff168373ffffffffffffffffffffffffffffffffffffffff1614610b9457610b93818486611563565b5b600073ffffffffffffffffffffffffffffffffffffffff168173ffffffffffffffffffffffffffffffffffffffff1614610c2557610bd660008560008061139e565b6001600360008373ffffffffffffffffffffffffffffffffffffffff1673ffffffffffffffffffffffffffffffffffffffff168152602001908152602001600020600082825403925050819055505b600073ffffffffffffffffffffffffffffffffffffffff168573ffffffffffffffffffffffffffffffffffffffff1614610ca8576001600360008773ffffffffffffffffffffffffffffffffffffffff1673ffffffffffffffffffffffffffffffffffffffff168152602001908152602001600020600082825401925050819055505b846002600086815260200190815260200160002060006101000a81548173ffffffffffffffffffffffffffffffffffffffff021916908373ffffffffffffffffffffffffffffffffffffffff160217905550838573ffffffffffffffffffffffffffffffffffffffff168273ffffffffffffffffffffffffffffffffffffffff167fddf252ad1be2c89b69c2b068fc378daa952ba7f163c4a11628f55a4df523b3ef60405160405180910390a4809150509392505050565b600073ffffffffffffffffffffffffffffffffffffffff168273ffffffffffffffffffffffffffffffffffffffff1603610dd157816040517f5b08ba18000000000000000000000000000000000000000000000000000000008152600401610dc89190611b7e565b60405180910390fd5b80600560008573ffffffffffffffffffffffffffffffffffffffff1673ffffffffffffffffffffffffffffffffffffffff16815260200190815260200160002060008473ffffffffffffffffffffffffffffffffffffffff1673ffffffffffffffffffffffffffffffffffffffff16815260200190815260200160002060006101000a81548160ff0219169083151502179055508173ffffffffffffffffffffffffffffffffffffffff168373ffffffffffffffffffffffffffffffffffffffff167f17307eab39ab6107e8899845ad3d59bd9653f200f220920489ca2b5937696c3183604051610ec29190611a0d565b60405180910390a3505050565b60008373ffffffffffffffffffffffffffffffffffffffff163b1115611080578273ffffffffffffffffffffffffffffffffffffffff1663150b7a02610f13610b2c565b8685856040518563ffffffff1660e01b8152600401610f3594939291906121ac565b6020604051808303816000875af1925050508015610f7157506040513d601f19601f82011682018060405250810190610f6e919061220d565b60015b610ff5573d8060008114610fa1576040519150601f19603f3d011682016040523d82523d6000602084013e610fa6565b606091505b506000815103610fed57836040517f64a0ae92000000000000000000000000000000000000000000000000000000008152600401610fe49190611b7e565b60405180910390fd5b805181602001fd5b63150b7a0260e01b7bffffffffffffffffffffffffffffffffffffffffffffffffffffffff1916817bffffffffffffffffffffffffffffffffffffffffffffffffffffffff19161461107e57836040517f64a0ae920000000000000000000000000000000000000000000000000000000081526004016110759190611b7e565b60405180910390fd5b505b50505050565b606060405180602001604052806000815250905090565b60606110a882610a67565b5060006110b3611086565b905060008151116110d357604051806020016040528060008152506110fe565b806110dd84611627565b6040516020016110ee9291906120d0565b6040516020818303038152906040525b915050919050565b600073ffffffffffffffffffffffffffffffffffffffff168273ffffffffffffffffffffffffffffffffffffffff16036111785760006040517f64a0ae9200000000000000000000000000000000000000000000000000000000815260040161116f9190611b7e565b60405180910390fd5b600061118683836000610b46565b9050600073ffffffffffffffffffffffffffffffffffffffff168173ffffffffffffffffffffffffffffffffffffffff16146111fa5760006040517f73c6ac6e0000000000000000000000000000000000000000000000000000000081526004016111f19190611b7e565b60405180910390fd5b505050565b611297828260405160240161121592919061223a565b6040516020818303038152906040527f4b5c4277000000000000000000000000000000000000000000000000000000007bffffffffffffffffffffffffffffffffffffffffffffffffffffffff19166020820180517bffffffffffffffffffffffffffffffffffffffffffffffffffffffff83818316178352505050506116f5565b5050565b806006600084815260200190815260200160002090816112bb919061241d565b507ff8e1a15aba9398e019f0b49df1a4fde98ee17ae345cb5f6b5e2c27f5033e8ce7826040516112eb9190611c14565b60405180910390a15050565b60007f01ffc9a7000000000000000000000000000000000000000000000000000000007bffffffffffffffffffffffffffffffffffffffffffffffffffffffff1916827bffffffffffffffffffffffffffffffffffffffffffffffffffffffff1916149050919050565b60006002600083815260200190815260200160002060009054906101000a900473ffffffffffffffffffffffffffffffffffffffff169050919050565b80806113d75750600073ffffffffffffffffffffffffffffffffffffffff168273ffffffffffffffffffffffffffffffffffffffff1614155b1561150b5760006113e784610a67565b9050600073ffffffffffffffffffffffffffffffffffffffff168373ffffffffffffffffffffffffffffffffffffffff161415801561145257508273ffffffffffffffffffffffffffffffffffffffff168173ffffffffffffffffffffffffffffffffffffffff1614155b8015611465575061146381846108f1565b155b156114a757826040517fa9fbf51f00000000000000000000000000000000000000000000000000000000815260040161149e9190611b7e565b60405180910390fd5b811561150957838573ffffffffffffffffffffffffffffffffffffffff168273ffffffffffffffffffffffffffffffffffffffff167f8c5be1e5ebec7d5bd14f71427d1e84f3dd0314c0f7b2291e5b200ac8c7c3b92560405160405180910390a45b505b836004600085815260200190815260200160002060006101000a81548173ffffffffffffffffffffffffffffffffffffffff021916908373ffffffffffffffffffffffffffffffffffffffff16021790555050505050565b61156e83838361170f565b61162257600073ffffffffffffffffffffffffffffffffffffffff168373ffffffffffffffffffffffffffffffffffffffff16036115e357806040517f7e2732890000000000000000000000000000000000000000000000000000000081526004016115da9190611c14565b60405180910390fd5b81816040517f177e802f0000000000000000000000000000000000000000000000000000000081526004016116199291906124ef565b60405180910390fd5b505050565b606060006001611636846117d0565b01905060008167ffffffffffffffff81111561165557611654611d25565b5b6040519080825280601f01601f1916602001820160405280156116875781602001600182028036833780820191505090505b509050600082602001820190505b6001156116ea578080600190039150507f3031323334353637383961626364656600000000000000000000000000000000600a86061a8153600a85816116de576116dd612518565b5b04945060008503611695575b819350505050919050565b61170c81611704611923611944565b63ffffffff16565b50565b60008073ffffffffffffffffffffffffffffffffffffffff168373ffffffffffffffffffffffffffffffffffffffff16141580156117c757508273ffffffffffffffffffffffffffffffffffffffff168473ffffffffffffffffffffffffffffffffffffffff161480611788575061178784846108f1565b5b806117c657508273ffffffffffffffffffffffffffffffffffffffff166117ae83610aef565b73ffffffffffffffffffffffffffffffffffffffff16145b5b90509392505050565b600080600090507a184f03e93ff9f4daa797ed6e38ed64bf6a1f010000000000000000831061182e577a184f03e93ff9f4daa797ed6e38ed64bf6a1f010000000000000000838161182457611823612518565b5b0492506040810190505b6d04ee2d6d415b85acef8100000000831061186b576d04ee2d6d415b85acef8100000000838161186157611860612518565b5b0492506020810190505b662386f26fc10000831061189a57662386f26fc1000083816118905761188f612518565b5b0492506010810190505b6305f5e10083106118c3576305f5e10083816118b9576118b8612518565b5b0492506008810190505b61271083106118e85761271083816118de576118dd612518565b5b0492506004810190505b6064831061190b576064838161190157611900612518565b5b0492506002810190505b600a831061191a576001810190505b80915050919050565b60006a636f6e736f6c652e6c6f679050600080835160208501845afa505050565b61194f819050919050565b611957612547565b565b6000604051905090565b600080fd5b600080fd5b60007fffffffff0000000000000000000000000000000000000000000000000000000082169050919050565b6119a28161196d565b81146119ad57600080fd5b50565b6000813590506119bf81611999565b92915050565b6000602082840312156119db576119da611963565b5b60006119e9848285016119b0565b91505092915050565b60008115159050919050565b611a07816119f2565b82525050565b6000602082019050611a2260008301846119fe565b92915050565b600081519050919050565b600082825260208201905092915050565b60005b83811015611a62578082015181840152602081019050611a47565b60008484015250505050565b6000601f19601f8301169050919050565b6000611a8a82611a28565b611a948185611a33565b9350611aa4818560208601611a44565b611aad81611a6e565b840191505092915050565b60006020820190508181036000830152611ad28184611a7f565b905092915050565b6000819050919050565b611aed81611ada565b8114611af857600080fd5b50565b600081359050611b0a81611ae4565b92915050565b600060208284031215611b2657611b25611963565b5b6000611b3484828501611afb565b91505092915050565b600073ffffffffffffffffffffffffffffffffffffffff82169050919050565b6000611b6882611b3d565b9050919050565b611b7881611b5d565b82525050565b6000602082019050611b936000830184611b6f565b92915050565b611ba281611b5d565b8114611bad57600080fd5b50565b600081359050611bbf81611b99565b92915050565b60008060408385031215611bdc57611bdb611963565b5b6000611bea85828601611bb0565b9250506020611bfb85828601611afb565b9150509250929050565b611c0e81611ada565b82525050565b6000602082019050611c296000830184611c05565b92915050565b600080600060608486031215611c4857611c47611963565b5b6000611c5686828701611bb0565b9350506020611c6786828701611bb0565b9250506040611c7886828701611afb565b9150509250925092565b600060208284031215611c9857611c97611963565b5b6000611ca684828501611bb0565b91505092915050565b611cb8816119f2565b8114611cc357600080fd5b50565b600081359050611cd581611caf565b92915050565b60008060408385031215611cf257611cf1611963565b5b6000611d0085828601611bb0565b9250506020611d1185828601611cc6565b9150509250929050565b600080fd5b600080fd5b7f4e487b7100000000000000000000000000000000000000000000000000000000600052604160045260246000fd5b611d5d82611a6e565b810181811067ffffffffffffffff82111715611d7c57611d7b611d25565b5b80604052505050565b6000611d8f611959565b9050611d9b8282611d54565b919050565b600067ffffffffffffffff821115611dbb57611dba611d25565b5b611dc482611a6e565b9050602081019050919050565b82818337600083830152505050565b6000611df3611dee84611da0565b611d85565b905082815260208101848484011115611e0f57611e0e611d20565b5b611e1a848285611dd1565b509392505050565b600082601f830112611e3757611e36611d1b565b5b8135611e47848260208601611de0565b91505092915050565b60008060008060808587031215611e6a57611e69611963565b5b6000611e7887828801611bb0565b9450506020611e8987828801611bb0565b9350506040611e9a87828801611afb565b925050606085013567ffffffffffffffff811115611ebb57611eba611968565b5b611ec787828801611e22565b91505092959194509250565b600067ffffffffffffffff821115611eee57611eed611d25565b5b611ef782611a6e565b9050602081019050919050565b6000611f17611f1284611ed3565b611d85565b905082815260208101848484011115611f3357611f32611d20565b5b611f3e848285611dd1565b509392505050565b600082601f830112611f5b57611f5a611d1b565b5b8135611f6b848260208601611f04565b91505092915050565b600060208284031215611f8a57611f89611963565b5b600082013567ffffffffffffffff811115611fa857611fa7611968565b5b611fb484828501611f46565b91505092915050565b60008060408385031215611fd457611fd3611963565b5b6000611fe285828601611bb0565b9250506020611ff385828601611bb0565b9150509250929050565b7f4e487b7100000000000000000000000000000000000000000000000000000000600052602260045260246000fd5b6000600282049050600182168061204457607f821691505b60208210810361205757612056611ffd565b5b50919050565b60006060820190506120726000830186611b6f565b61207f6020830185611c05565b61208c6040830184611b6f565b949350505050565b600081905092915050565b60006120aa82611a28565b6120b48185612094565b93506120c4818560208601611a44565b80840191505092915050565b60006120dc828561209f565b91506120e8828461209f565b91508190509392505050565b7f4e487b7100000000000000000000000000000000000000000000000000000000600052601160045260246000fd5b600061212e82611ada565b915061213983611ada565b9250828201905080821115612151576121506120f4565b5b92915050565b600081519050919050565b600082825260208201905092915050565b600061217e82612157565b6121888185612162565b9350612198818560208601611a44565b6121a181611a6e565b840191505092915050565b60006080820190506121c16000830187611b6f565b6121ce6020830186611b6f565b6121db6040830185611c05565b81810360608301526121ed8184612173565b905095945050505050565b60008151905061220781611999565b92915050565b60006020828403121561222357612222611963565b5b6000612231848285016121f8565b91505092915050565b600060408201905081810360008301526122548185611a7f565b905081810360208301526122688184611a7f565b90509392505050565b60008190508160005260206000209050919050565b60006020601f8301049050919050565b600082821b905092915050565b6000600883026122d37fffffffffffffffffffffffffffffffffffffffffffffffffffffffffffffffff82612296565b6122dd8683612296565b95508019841693508086168417925050509392505050565b6000819050919050565b600061231a61231561231084611ada565b6122f5565b611ada565b9050919050565b6000819050919050565b612334836122ff565b61234861234082612321565b8484546122a3565b825550505050565b600090565b61235d612350565b61236881848461232b565b505050565b5b8181101561238c57612381600082612355565b60018101905061236e565b5050565b601f8211156123d1576123a281612271565b6123ab84612286565b810160208510156123ba578190505b6123ce6123c685612286565b83018261236d565b50505b505050565b600082821c905092915050565b60006123f4600019846008026123d6565b1980831691505092915050565b600061240d83836123e3565b9150826002028217905092915050565b61242682611a28565b67ffffffffffffffff81111561243f5761243e611d25565b5b612449825461202c565b612454828285612390565b600060209050601f8311600181146124875760008415612475578287015190505b61247f8582612401565b8655506124e7565b601f19841661249586612271565b60005b828110156124bd57848901518255600182019150602085019450602081019050612498565b868310156124da57848901516124d6601f8916826123e3565b8355505b6001600288020188555050505b505050505050565b60006040820190506125046000830185611b6f565b6125116020830184611c05565b9392505050565b7f4e487b7100000000000000000000000000000000000000000000000000000000600052601260045260246000fd5b7f4e487b7100000000000000000000000000000000000000000000000000000000600052605160045260246000fdfea264697066735822122031dc2798fa6bfb814d8b8261b011ac39fdff3a61a3b333d624dcf4fd2c8ea0b364736f6c63430008180033",
  "linkReferences": {},
  "deployedLinkReferences": {}
}